:020000040000FA
:0400000035EF00F0E8
:060008005A82F6ED0CF037
:100018005A80D8CF02F0E8CF03F0E0CF04F0F0A088
:1000280018EF00F01AEF00F02DEF00F00001641F48
:100038008DB021EF00F024EF00F0010E25EF00F065
:10004800000EFF0A016E8D500118FE0B01188D6E0F
:10005800F09004C0E0FF03C0E8FF02C0D8FF5A9048
:0600680010002EEF0DF068
:100800000073616C6F6E20313A2025642020202017
:1008100020202020200073616C6F6E20323A20254A
:1008200064202020202020002A2A2A454D455247B6
:10083000454E4349412A2A2A002A53414C41204D22
:100840004F4E49544F52454F2A002A5075657274D5
:100850006120616269657274612A00202020202075
:1008600020202020202020202020200073616C6F79
:100870006E20313A206C6C656E6F0073616C6F6E28
:0B08800020323A206C6C656E6F0000A7
:10088C0055EC0DF006EC0AF04AEC0DF0800E136EF0
:10089C00250E146E000E156E000E166E3BEC0BF052
:1008AC00650E0001666F010E656F5A0EA96F000E82
:1008BC00646F000E086E000E076E000E0A6E000EBE
:1008CC00096ED6EC0CF0390E076E080E086EAAEC09
:1008DC000BF0070E00019E6F170E9D6F6A0EE82E2F
:1008EC00FED79D2FFCD79E2FFAD700F00001645144
:1008FC00D8A483EF04F085EF04F050EF05F073EC0F
:10090C000BF00001AA6F040E00019E6F0C0E9D6F80
:10091C00330EE82EFED79D2FFCD79E2FFAD700D092
:10092C0000016505D8A49DEF04F09FEF04F0DFEF04
:10093C0004F0000E086E000E076E000E0A6E000E1C
:10094C00096ED6EC0CF0390E076E080E086EAAEC88
:10095C000BF0040E00019E6F0C0E9D6F330EE82EF3
:10096C00FED79D2FFCD79E2FFAD700D00001A9519E
:10097C003FEC0DF0040E00019E6F0C0E9D6F330EBC
:10098C00E82EFED79D2FFCD79E2FFAD700D0000E55
:10099C000001656F66513FEC0DF00A0E00019E6F71
:1009AC00220E9D6FA10EE82EFED79D2FFCD79E2FF9
:1009BC00FAD7050E0001AA61E6EF04F0E8EF04F0A7
:1009CC002CEF05F0650E6619D8A4EFEF04F0F1EFEB
:1009DC0004F000EF05F09F0E8D6F000E8E6F010E70
:1009EC008F6F080E906FAAC091F0926B6BEC0CF0AD
:1009FC000DEF05F09F0E8D6F000E8E6F160E8F6F24
:100A0C00080E906FAAC091F0926B6BEC0CF0000E7C
:100A1C00086E010E076E000E0A6E000E096ED6EC03
:100A2C000CF09F0E076E000E086EAAEC0BF0040E75
:100A3C0000019E6F0C0E9D6F330EE82EFED79D2F7E
:100A4C00FCD79E2FFAD700D07CEF04F0000E086E76
:100A5C00010E076E000E0A6E000E096ED6EC0CF03D
:100A6C00650E00016619D8A43EEF05F040EF05F0C5
:100A7C0048EF05F06C0E076E080E086EAAEC0BF032
:100A8C001DEF05F07B0E076E080E086EAAEC0BF03E
:100A9C001DEF05F0010E12EC0CF0000E086E000EAE
:100AAC00076E000E0A6E000E096ED6EC0CF0280EC6
:100ABC00076E080E086EAAEC0BF0070E00019E6F75
:100ACC00170E9D6F6A0EE82EFED79D2FFCD79E2F1A
:100ADC00FAD700F0000E086E010E076E000E0A6EBB
:100AEC00000E096ED6EC0CF04A0E076E080E086E5E
:100AFC00AAEC0BF0070E00019E6F170E9D6F6A0E8D
:100B0C00E82EFED79D2FFCD79E2FFAD700F0B4EF1E
:100B1C0005F073EC0BF00001AA6F040E00019E6F40
:100B2C000C0E9D6F330EE82EFED79D2FFCD79E2FFB
:100B3C00FAD700D0AAC089FF010E0001656F370EED
:100B4C003FEC0DF00A0E00019E6F220E9D6FA10E60
:100B5C00E82EFED79D2FFCD79E2FFAD700016429D3
:100B6C00D8B4BBEF05F0BDEF05F08FEF05F07CEFCF
:100B7C0004F035EF00F022C03AF023C03BF024C063
:100B8C003CF025C03DF026C03EF027C03FF028C009
:100B9C0040F029C041F041BED6EF05F0D9EF05F089
:100BAC00010EDAEF05F0000E386E396A3850391044
:100BBC00D8B4E3EF05F0E5EF05F0F5EF05F0411ED5
:100BCC00401E3F1E3E1E3D1E3C1E3B1E3A6C000E40
:100BDC003B223C223D223E223F224022412257BE54
:100BEC00FAEF05F0FCEF05F0FDEF05F0589257BE5B
:100BFC000AEF06F0575006E15604D8B008EF06F09D
:100C0C000AEF06F010EF06F0000E356E010E346E92
:100C1C0014EF06F056C034F057C035F062C036F011
:100C2C0063C037F038503910D8A41FEF06F021EF0D
:100C3C0006F028EF06F058A426EF06F028EF06F091
:100C4C002BEF06F03606D8A03706000E436E1F0EAB
:100C5C00426E000E0001866FB0EF06F04206D8A07F
:100C6C004306670E4224D96E000E4320DA6E3AC05A
:100C7C0005F03BC006F03CC007F03DC008F03EC09C
:100C8C0009F03FC00AF040C00BF041C00CF00A0E56
:100C9C000D6E000E0E6E000E0F6E000E106E000E1E
:100CAC00116E000E126E000E136E000E146ECEEC52
:100CBC0008F005C02AF006C02BF007C02CF008C0C5
:100CCC002DF009C02EF00AC02FF00BC030F00CC074
:100CDC0031F02AC017F02CC018F0B6EC0CF01750FD
:100CEC00300FDF6E3406D8A035063606D8A037068E
:100CFC003AC005F03BC006F03CC007F03DC008F020
:100D0C003EC009F03FC00AF040C00BF041C00CF0EF
:100D1C000A0E0D6E000E0E6E000E0F6E000E106E93
:100D2C00000E116E000E126E000E136E000E146E7D
:100D3C000AEC08F005C03AF006C03BF007C03CF0E6
:100D4C0008C03DF009C03EF00AC03FF00BC040F0B7
:100D5C000CC041F043BEBBEF06F0435008E1420427
:100D6C00D8A0BBEF06F0BDEF06F0EDEF06F03A5061
:100D7C003B103C103D103E103F1040104110D8A4C9
:100D8C00CAEF06F0CCEF06F034EF06F035BED9EF23
:100D9C0006F0355006E13404D8B0D7EF06F0D9EFA1
:100DAC0006F034EF06F037BEE4EF06F0375008E1FA
:100DBC003604D8A0E4EF06F0E6EF06F0EDEF06F00F
:100DCC0058B2EBEF06F0EDEF06F034EF06F03850CA
:100DDC003910D8A4F4EF06F0F6EF06F0FDEF06F0AC
:100DEC0058A4FBEF06F0FDEF06F01BEF07F04206F0
:100DFC00D8A0430638503910D8A407EF07F009EFF4
:100E0C0007F00FEF07F0000E336E2B0E326E13EF60
:100E1C0007F0000E336E2D0E326E670E4224D96E23
:100E2C00000E4320DA6E32C0DFFF20C015F021C067
:100E3C0016F0670E4224176E000E4320186E36C053
:100E4C0019F037C01AF0DAEC0AF015C020F016C011
:100E5C0021F0120046C0D9FF47C0DAFFDECFF6FF03
:100E6C00DDCFF7FF0800F550250AD8A440EF07F0B6
:100E7C0042EF07F0EEEF07F046C0D9FF47C0DAFFAC
:100E8C00DE2A000EDD22000E0001636F000E626F81
:100E9C0062C058F063C059F05668576846C0D9FF15
:100EAC0047C0DAFFDECFF6FFDDCFF7FF0800F550C5
:100EBC00640AD8B464EF07F066EF07F078EF07F038
:100ECC0046C0D9FF47C0DAFFDECFF6FFDDCFF7FF14
:100EDC000800F550690AD8A476EF07F078EF07F010
:100EEC00B8EF07F046C0D9FF47C0DAFFDE2A000E84
:100EFC00DD2248C0D9FF49C0DAFFDFCF4AF0020E2D
:100F0C00DE26DFCF4BF0000EDD224AC0D9FF4BC0EE
:100F1C00DAFFDECF4CF0DDCF4DF0000E4DBEFF0EF4
:100F2C004E6E4F6E506E516E526E536E44C020F02A
:100F3C0045C021F04CC022F04DC023F04EC024F02F
:100F4C004FC025F050C026F051C027F052C028F0F9
:100F5C0053C029F0C1EC05F020C044F021C045F08D
:100F6C0009EF08F046C0D9FF47C0DAFFDECFF6FF25
:100F7C00DDCFF7FF0800F550250AD8A4C8EF07F01D
:100F8C00CAEF07F0E1EF07F046C0D9FF47C0DAFF20
:100F9C00DE2A000EDD22000E066E250E056E44C004
:100FAC0007F045C008F075EC0AF0000E456E010E16
:100FBC00446E09EF08F046C0D9FF47C0DAFFDE2ABD
:100FCC00000EDD22000E456E000E446E09EF08F097
:100FDC0046C0D9FF47C0DAFFDECFF6FFDDCFF7FF03
:100FEC000800F550056E066A44C007F045C008F0CD
:100FFC0075EC0AF046C0D9FF47C0DAFFDE2A000EB6
:10100C00DD22DBEF07F01200000E166E14BE13EF9C
:10101C0008F011EF08F025EF08F0141E131E121E35
:10102C00111E101E0F1E0E1E0D6C000E0E220F2216
:10103C0010221122122213221422010E166E0CBE43
:10104C002CEF08F02AEF08F03EEF08F00C1E0B1EF8
:10105C000A1E091E081E071E061E056C000E06221F
:10106C000722082209220A220B220C22010E161A30
:10107C0020EE17F0070EDE6AE806FDE20D500E10AA
:10108C000F1010101110121013101410D8B451EFBF
:10109C0008F053EF08F0A5EF08F0010E156E61EFA4
:1010AC0008F0D8900D360E360F3610361136123633
:1010BC0013361436152A14AE66EF08F068EF08F0F4
:1010CC0057EF08F0D8901736183619361A361B36E3
:1010DC001C361D361E360D50055C0E5006580F5032
:1010EC000758105008581150095812500A581350EC
:1010FC000B5814500C58D8A086EF08F088EF08F065
:10110C0099EF08F00D50055E0E50065A0F50075A15
:10111C001050085A1150095A12500A5A13500B5AAF
:10112C0014500C5A1780D8901432133212321132D8
:10113C0010320F320E320D32152E68EF08F01650A9
:10114C00D8B4ABEF08F0ADEF08F0BDEF08F01E1E01
:10115C001D1E1C1E1B1E1A1E191E181E176C000E9F
:10116C00182219221A221B221C221D221E2217C0F1
:10117C0005F018C006F019C007F01AC008F01BC023
:10118C0009F01CC00AF01DC00BF01EC00CF01200C0
:10119C00000E166E0CBED7EF08F0D5EF08F0E9EF95
:1011AC0008F00C1E0B1E0A1E091E081E071E061E2A
:1011BC00056C000E06220722082209220A220B22A5
:1011CC000C22010E166E14BEF0EF08F0EEEF08F0D4
:1011DC0000EF09F0141E131E121E111E101E0F1EFE
:1011EC000E1E0D6C000E0E220F2210221122122246
:1011FC00132214220D500E100F101010111012107B
:10120C0013101410D8B40DEF09F00FEF09F057EFCD
:10121C0009F0010E156E1DEF09F0D8900D360E3643
:10122C000F3610361136123613361436152A14AE04
:10123C0022EF09F024EF09F013EF09F00D50055CD3
:10124C000E5006580F500758105008581150095896
:10125C0012500A5813500B5814500C58D8A039EF90
:10126C0009F03BEF09F04BEF09F00D50055E0E5005
:10127C00065A0F50075A1050085A1150095A12505A
:10128C000A5A13500B5A14500C5AD8901432133269
:10129C001232113210320F320E320D32152E24EF63
:1012AC0009F01650D8B45DEF09F05FEF09F06FEF5D
:1012BC0009F00C1E0B1E0A1E091E081E071E061E18
:1012CC00056C000E06220722082209220A220B2294
:1012DC000C2205C005F006C006F007C007F008C0D8
:1012EC0008F009C009F00AC00AF00BC00BF00CC0E2
:1012FC000CF01200000E0E6E0CBE89EF09F087EF99
:10130C0009F093EF09F00C1E0B1E0A1E096C000E5F
:10131C000A220B220C22010E0E6E08BE9AEF09F067
:10132C0098EF09F0A4EF09F0081E071E061E056CC5
:10133C00000E062207220822010E0E1A000E0F6E56
:10134C00000E106E000E116E000E126E09500A1077
:10135C000B100C10D8B4B5EF09F0B7EF09F0EDEFA6
:10136C0009F0010E0D6EC1EF09F0D89009360A365E
:10137C000B360C360D2A0CAEC6EF09F0C8EF09F08F
:10138C00BBEF09F0D8900F361036113612360950D3
:10139C00055C0A5006580B5007580C500858D8A03A
:1013AC00DAEF09F0DCEF09F0E5EF09F00950055E22
:1013BC000A50065A0B50075A0C50085A0F80D890F6
:1013CC000C320B320A3209320D2EC8EF09F00E50D6
:1013DC00D8B4F3EF09F0F5EF09F0FDEF09F0121EA8
:1013EC00111E101E0F6C000E1022112212220FC0A3
:1013FC0005F010C006F011C007F012C008F0120082
:10140C00959C959A9598F00E8316F00E95168C9CDB
:10141C008C9A8C98EA0E076EC30EE82EFED7072E18
:10142C00FCD700F0300E12EC0CF04E0E076EEB0EEB
:10143C00E82EFED7072EFCD700F0300E12EC0CF085
:10144C00F00E00D0E82EFDD7320E12EC0CF0030E8D
:10145C00076E550EE82EFED7072EFCD700F0030EB4
:10146C00076E550EE82EFED7072EFCD700F0280E7F
:10147C0012EC0CF0030E076E550EE82EFED7072E5D
:10148C00FCD700F0080E12EC0CF0030E076E550E94
:10149C00E82EFED7072EFCD700F0010E12EC0CF054
:1014AC004E0E076EEB0EE82EFED7072EFCD700F083
:1014BC00060E12EC0CF0030E076E550EE82EFED73E
:1014CC00072EFCD700F00C0E12EC0CF0030E076E7E
:1014DC00550EE82EFED7072EFCD700F01200075051
:1014EC000810D8B47CEF0AF07EEF0AF087EF0AF010
:1014FC0007500810D8A485EF0AF087EF0AF08CEF9C
:10150C000AF0055059EC0DF0D9EF0AF020EE04F07A
:10151C000750D9260850DA22DE50DE10D8B499EFE5
:10152C000AF09BEF0AF0B6EF0AF020EE04F0075039
:10153C00D9260850DA2210EE02F00750E1260850A6
:10154C00E222DE50E65CE650800A0D6EDE50800A28
:10155C000D58D8B0B4EF0AF0B6EF0AF0D9EF0AF094
:10156C0020EE02F00750D9260850DA22DECF09F01F
:10157C00DDCF0AF007C0D9FF08C0DAFFDECF0BF0D1
:10158C00DDCF0CF009500B24D96E0A500C20DA6E0A
:10159C0005C0DFFF20EE02F00750D9260850DA22F2
:1015AC00DE2A000EDD22120058A0DFEF0AF0E1EF78
:1015BC000AF0EBEF0AF017C00EF018C00FF015C0D0
:1015CC0010F016C011F094EC0CF01ABEF0EF0AF00B
:1015DC00F2EF0AF0F8EF0AF019C01EF01AC01FF073
:1015EC00FCEF0AF0000E1F6E000E1E6E000E1D6E3C
:1015FC00000E1C6E0EEF0BF0000E066E200E056E2C
:10160C0015C007F016C008F075EC0AF01C4A1D2A2C
:10161C001E501C5C1D50800A1B6E1F50800A1B58EC
:10162C00D8A01BEF0BF01DEF0BF002EF0BF058B036
:10163C0022EF0BF024EF0BF02EEF0BF017C00EF097
:10164C0018C00FF015C010F016C011F094EC0CF08F
:10165C0017C005F018C006F013EC0DF01E50052451
:10166C00156E1F500620166E1200949C948E13C09B
:10167C0009F014C00AF015C00BF016C00CF0000EE7
:10168C00056E6C0E066EDC0E076E020E086E80EC9C
:10169C0009F005C017F006C018F007C019F008C013
:1016AC001AF017C005F018C006F019C007F01AC0E0
:1016BC0008F0400E096E000E0A6E000E0B6E000E46
:1016CC000C6E80EC09F00504AF6EAC94AC98AB8E4C
:1016DC00AC9CAC8AAB9CAB881200ABB278EF0BF035
:1016EC007BEF0BF0010E7CEF0BF0000E056E066A23
:1016FC00051C076E061C086EABB487EF0BF08AEF67
:10170C000BF0010E8BEF0BF0000E096E0A6A091C30
:10171C000B6E0A1C0C6E07500B1608500C160B5057
:10172C000C10D8A49CEF0BF09EEF0BF0A8EF0BF075
:10173C00AB9E100E056E940EE82EFED7052EFCD730
:10174C0000D0AB8EAE501200C8EF0BF0030E096E3A
:10175C00550EE82EFED7092EFCD700F007C0F6FF79
:10176C0008C0F7FFF86A070EF76403D00800F550BD
:10177C0005D0F6CFE1FFF7CFE2FFE7503FEC0CF0DE
:10178C00074A082A07C0F6FF08C0F7FFF86A070ED9
:10179C00F76403D00800F55005D0F6CFE1FFF7CF82
:1017AC00E2FFE7500009D8A4DEEF0BF0E0EF0BF0FE
:1017BC00ACEF0BF0120089C054F08AC055F0000E4B
:1017CC000001616F000E606FFFEF0BF087C044F0FB
:1017DC0088C045F0540E466E000E476E8BC048F024
:1017EC008CC049F030EC07F04450000160274550A4
:1017FC00612354C0F6FF55C0F7FF0800F5500009EF
:10180C00D8A40BEF0CF00DEF0CF0ECEF0BF060C06C
:10181C0087F061C088F01200066E030E056E550E3F
:10182C00E82EFED7052EFCD700F0F00E9516F00E24
:10183C00831606380F0B0F0B8310836E8C9C8C9ABF
:10184C003C0EE82EFED78C883C0EE82EFED78C98EA
:10185C00F00E831606500F0B8310836E3C0EE82E91
:10186C00FED78C883C0EE82EFED78C980F0E951266
:10187C001200066E030E056E550EE82EFED7052ED1
:10188C00FCD700F0F00E8316F00E951606380F0BF1
:10189C000F0B8310836E8C8A8C9C3C0EE82EFED72B
:1018AC008C883C0EE82EFED78C98F00E83160650D2
:1018BC000F0B83123C0EE82EFED78C883C0EE82EC4
:1018CC00FED78C980F0E95121200910E0001956F99
:1018DC00000E966F8DC097F08EC098F0000E9A6F28
:1018EC00000E996F000E9C6F000E9B6F970E876F0A
:1018FC00000E886F8FC089F090C08AF0950E8B6FA8
:10190C00000E8C6FE1EC0BF0000199518D25D96E16
:10191C009A518E21DA6E000EDF6E1200000E146EDC
:10192C00000E136EA5EF0CF012C005F0066A10C085
:10193C0007F011C008F075EC0AF0134A142A135082
:10194C000E24D96E14500F20DA6EDF50126E125026
:10195C00D8A4B3EF0CF0B5EF0CF09AEF0CF012002A
:10196C0018BEC3EF0CF0185006E11704D8B0C1EF45
:10197C000CF0C3EF0CF0D1EF0CF017C019F018C03D
:10198C001AF0191E1A1E194A1A2A19C017F01AC071
:10199C0018F0D5EF0CF017C017F018C018F01200A3
:1019AC00030E0B6E550EE82EFED70B2EFCD700F057
:1019BC0008BEE9EF0CF0085008E10704D8A0E9EFE5
:1019CC000CF0EBEF0CF0F1EF0CF00950C00F12EC37
:1019DC000CF0F5EF0CF00950800F12EC0CF012002B
:1019EC00060081B0FCEF0CF0FEEF0CF0F7EF0CF002
:1019FC00010E0001656F650E6619D8A408EF0DF095
:101A0C000AEF0DF00EEF0DF0660E666F10EF0DF095
:101A1C00650E666FF2925A92110005C007F006C06F
:101A2C0008F01BEF0DF0054A062A05C0D9FF06C0C9
:101A3C00DAFFDF50D8A425EF0DF027EF0DF019EFEA
:101A4C000DF00750055C056E08500658066E120026
:101A5C0000EE60F0270EEE6AE806FDE1596A586A5E
:101A6C00576A566A5A905A92000EF86E000146EF69
:101A7C0004F0056EACA245EF0DF047EF0DF040EF12
:101A8C000DF005C0ADFF1200D08EF288F292F19CE1
:101A9C00F28EF086F090F198F09CF28C12000F0E02
:081AAC00C11296901200120015
:020000040020DA
:08000000FFFFFFFFFFFFFFFF00
:020000040030CA
:0E000000040E181EFF0181FF0FC00FE00F401D
:00000001FF
