:020000040000FA
:0400000007EF00F016
:0A000800598277ED10F096EF0FF02B
:100800000088C090A02A2A2A454D455247454E43AC
:1008100049412A2A2A002A2A2A41554C41204C4C77
:10082000454E412A2A2A002A2A2A4269656E76659F
:100830006E69646F2A2A2A002A50756572746120D5
:10084000616269657274612A002A2A2A2A53414C1E
:100850004F4E2D312A2A2A2A005061736520737564
:10086000207461726A657461005549443A257820A4
:10087000202020002020202320256420000099EC47
:1008800010F0A2EC10F075EC0CF0800E106E250E3E
:10089000116E000E126E000E136EACEC0DF0000E19
:1008A000056E000E046E000E076E000E066E76ECEE
:1008B0000FF0270E046E080E056E1BEC0EF0070EEF
:1008C000576E170E566E6A0EE82EFED7562EFCD7C0
:1008D000572EFAD700D0000E056E010E046E000EE2
:1008E000076E000E066E76EC0FF0590E046E080EC1
:1008F000056E1BEC0EF0070E576E170E566E6A0E45
:10090000E82EFED7562EFCD7572EFAD700D0E4ECAF
:100910000DF000016B6F040E576E0C0E566E340E08
:10092000E82EFED7562EFCD7572EFAD7D2EC0FF072
:10093000370E00016B19D8A4A0EF04F0A2EF04F069
:10094000A4EF04F068698D806851D8A4AAEF04F080
:10095000ACEF04F0C9EF05F082A0B1EF04F0B3EF03
:1009600004F03BEF05F0050E5860B9EF04F0BBEF63
:1009700004F03BEF05F0040E576E0C0E566E340E6D
:10098000E82EFED7562EFCD7572EFAD782B0CBEFE3
:1009900004F0CDEF04F0C6EF04F0000E056E000E7B
:1009A000046E000E076E000E066E76EC0FF0490E18
:1009B000046E080E056E1BEC0EF0070E576E170E38
:1009C000566E6A0EE82EFED7562EFCD7572EFAD753
:1009D00000D08C0E0001C76F000EC86F690EC96F82
:1009E000080ECA6FBA0ECB6FB10ECC6F000ECD6F72
:1009F000000ECE6F0BEC0FF0000E056E010E046EB4
:100A0000000E076E000E066E76EC0FF08C0E046E74
:100A1000000E056E1BEC0EF0582A5DEC10F0AC0ECB
:100A20000001C76F000EC86F740EC96F080ECA6F41
:100A300058C0CBF0CC6B0BEC0FF0000E056E010E26
:100A4000046E000E076E0A0E066E76EC0FF0AC0E0A
:100A5000046E000E056E1BEC0EF0070E576E170E9F
:100A6000566E6A0EE82EFED7562EFCD7572EFAD7B2
:100A700000D0AEEF05F082A240EF05F042EF05F0A6
:100A8000AEEF05F05850D8B448EF05F04AEF05F046
:100A9000AEEF05F0040E576E0C0E566E340EE82EB7
:100AA000FED7562EFCD7572EFAD782B25AEF05F052
:100AB0005CEF05F055EF05F0000E056E000E046EBC
:100AC000000E076E000E066E76EC0FF0490E046EF7
:100AD000080E056E1BEC0EF0070E576E170E566EC5
:100AE0006A0EE82EFED7562EFCD7572EFAD700D026
:100AF0008C0E0001C76F000EC86F690EC96F080E1B
:100B0000CA6FBA0ECB6FB10ECC6F000ECD6F000E58
:100B1000CE6F0BEC0FF0000E056E010E046E000E92
:100B2000076E000E066E76EC0FF08C0E046E000E53
:100B3000056E1BEC0EF0580643EC10F0AC0E0001F5
:100B4000C76F000EC86F740EC96F080ECA6F58C009
:100B5000CBF0CC6B0BEC0FF01DEF05F0050E581829
:100B6000D8A4B5EF05F0B7EF05F087EF04F0000E5D
:100B7000056E010E046E000E076E000E066E76EC1A
:100B80000FF0160E046E080E056E1BEC0EF07BEFD8
:100B900004F0010EB2EC0EF0000E056E000E046EB5
:100BA000000E076E000E066E76EC0FF0050E046E5A
:100BB000080E056E1BEC0EF0070E576E170E566EE4
:100BC0006A0EE82EFED7562EFCD7572EFAD700D045
:100BD000000E056E010E046E000E076E000E066E0E
:100BE00076EC0FF0380E046E080E056E1BEC0EF05E
:100BF000070E576E170E566E6A0EE82EFED7562E4B
:100C0000FCD7572EFAD700D043EF06F0E4EC0DF0F6
:100C100000016B6F040E576E0C0E566E340EE82EEC
:100C2000FED7562EFCD7572EFAD7370E00016B1978
:100C3000D8B41DEF06F01FEF06F02AEF06F06A5158
:100C4000D8A425EF06F027EF06F02AEF06F0000EF5
:100C5000686F8D905850D8B430EF06F032EF06F040
:100C600043EF06F043EC10F05806D2EC0FF00A0EFA
:100C7000576E220E566EA10EE82EFED7562EFCD7CA
:100C8000572EFAD700F000016829D8B44AEF06F0D1
:100C90004CEF06F006EF06F087EF04F007EF00F0E8
:100CA0001FC037F020C038F021C039F022C03AF020
:100CB00023C03BF024C03CF025C03DF026C03EF0F0
:100CC0003EBE65EF06F068EF06F0010E69EF06F034
:100CD000000E356E366A35503610D8B472EF06F015
:100CE00074EF06F084EF06F03E1E3D1E3C1E3B1ED8
:100CF0003A1E391E381E376C000E382239223A222D
:100D00003B223C223D223E22000165BF8AEF06F0D5
:100D10008CEF06F08DEF06F0669365BF9AEF06F054
:100D2000655106E16405D8B098EF06F09AEF06F039
:100D3000A0EF06F0000E326E010E316EA4EF06F049
:100D400064C031F065C032F062C033F063C034F08B
:100D500035503610D8A4AFEF06F0B1EF06F0B8EF7B
:100D600006F066A5B6EF06F0B8EF06F0BBEF06F0AA
:100D70003306D8A03406000E406E1F0E3F6E000EE4
:100D80008B6F3FEF07F03F06D8A040066C0E3F2464
:100D9000D96E000E4020DA6E37C002F038C003F082
:100DA00039C004F03AC005F03BC006F03CC007F083
:100DB0003DC008F03EC009F00A0E0A6E000E0B6E30
:100DC000000E0C6E000E0D6E000E0E6E000E0F6EFD
:100DD000000E106E000E116E3DEC0BF002C027F0FD
:100DE00003C028F004C029F005C02AF006C02BF08B
:100DF00007C02CF008C02DF009C02EF027C014F059
:100E000029C015F056EC0FF01450300FDF6E31068C
:100E1000D8A032063306D8A0340637C002F038C056
:100E200003F039C004F03AC005F03BC006F03CC006
:100E300007F03DC008F03EC009F00A0E0A6E000E31
:100E40000B6E000E0C6E000E0D6E000E0E6E000E80
:100E50000F6E000E106E000E116E79EC0AF002C0DB
:100E600037F003C038F004C039F005C03AF006C0CE
:100E70003BF007C03CF008C03DF009C03EF040BE6A
:100E80004AEF07F0405008E13F04D8A04AEF07F0CE
:100E90004CEF07F07DEF07F03750381039103A105B
:100EA0003B103C103D103E10D8A459EF07F05BEF0B
:100EB00007F0C3EF06F032BE68EF07F0325006E1EC
:100EC0003104D8B066EF07F068EF07F0C3EF06F023
:100ED00034BE73EF07F0345008E13304D8A073EF49
:100EE00007F075EF07F07DEF07F0000166B37BEFC9
:100EF00007F07DEF07F0C3EF06F035503610D8A4A9
:100F000084EF07F086EF07F08EEF07F0000166A58B
:100F10008CEF07F08EEF07F0ACEF07F03F06D8A09C
:100F2000400635503610D8A498EF07F09AEF07F036
:100F3000A0EF07F0000E306E2B0E2F6EA4EF07F01F
:100F4000000E306E2D0E2F6E6C0E3F24D96E000EEB
:100F50004020DA6E2FC0DFFF1DC012F01EC013F05C
:100F60006C0E3F24146E000E4020156E33C016F038
:100F700034C017F049EC0DF012C01DF013C01EF084
:100F80001200000165BFC7EF07F0C9EF07F0CAEF15
:100F900007F0669365BFD7EF07F0655106E164057A
:100FA000D8B0D5EF07F0D7EF07F0DDEF07F0000E70
:100FB000356E010E346EE1EF07F064C034F065C0A9
:100FC00035F062C036F063C037F066A9EAEF07F08B
:100FD000ECEF07F0F0EF07F0FE0E3626FF0E37229B
:100FE0001FC038F020C039F021C03AF022C03BF0D9
:100FF00023C03CF024C03DF025C03EF026C03FF0A9
:10100000000E416E1F0E406E000E8B6FBBEF08F09E
:101010004006D8A041060F0E3814426E436A43BE04
:101020001BEF08F0435009E10A0E425CD8A01BEF09
:1010300008F01DEF08F025EF08F0570E4224426E2D
:10104000000E4320436E2BEF08F0300E4224426E18
:10105000000E4320436EBF0E286EFF0E296E2750F0
:101060002A6E2B6A28502A2629502B222B500AE15F
:101070001A0E2A5CD8A03FEF08F042EF08F0010EEC
:1010800043EF08F0000E306E316A30503110D8B4A2
:101090004CEF08F04EEF08F07EEF08F09F0E286E40
:1010A000FF0E296E200E42102A6E000E43102B6E8A
:1010B00028502A2629502B222B500AE11A0E2A5C8E
:1010C000D8A065EF08F068EF08F0010E69EF08F0AE
:1010D000000E326E336A32503310D8B472EF08F01B
:1010E00074EF08F07EEF08F042C008F043C009F04A
:1010F00083EC0EF008C042F009C043F06C0E4024AF
:10110000D96E000E4120DA6E42C0DFFF3406D8A04F
:1011100035063606D8A0370638C028F039C029F081
:101120003AC02AF03BC02BF03CC02CF03DC02DF063
:101130003EC02EF03FC02FF0050EA8EF08F0D8906B
:101140002F322E322D322C322B322A3229322832B3
:10115000E82E9FEF08F028C038F029C039F02AC0E7
:101160003AF02BC03BF02CC03CF02DC03DF02EC01F
:101170003EF02FC03FF041BEC7EF08F0415009E1FB
:10118000020E405CD8A0C7EF08F0C9EF08F0FAEFF4
:1011900008F0385039103A103B103C103D103E100A
:1011A0003F10D8A4D6EF08F0D8EF08F008EF08F009
:1011B00035BEE5EF08F0355006E13404D8B0E3EF72
:1011C00008F0E5EF08F008EF08F037BEF0EF08F0A0
:1011D000375008E13604D8A0F0EF08F0F2EF08F03D
:1011E000FAEF08F0000166B3F8EF08F0FAEF08F044
:1011F00008EF08F0000166A900EF09F002EF09F01E
:1012000018EF09F04006D8A041066C0E4024D96EB4
:10121000000E4120DA6E27C0DFFF4006D8A041064D
:101220006C0E4024D96E000E4120DA6E300EDF6E57
:101230001DC012F01EC013F06C0E4024146E000E80
:101240004120156E36C016F037C017F049EC0DF08E
:1012500012C01DF013C01EF0120046C0D9FF47C0D7
:10126000DAFFDECFF6FFDDCFF7FF0800F550250AE5
:10127000D8A43DEF09F03FEF09F05DEF0AF046C05A
:10128000D9FF47C0DAFFDE2A000EDD22000E000182
:10129000636F000E626F62C066F063C067F06469DE
:1012A000656946C0D9FF47C0DAFFDECFF6FFDDCF64
:1012B000F7FF0800F550640AD8B461EF09F063EF56
:1012C00009F075EF09F046C0D9FF47C0DAFFDECF5D
:1012D000F6FFDDCFF7FF0800F550690AD8A473EFD9
:1012E00009F075EF09F0B5EF09F046C0D9FF47C026
:1012F000DAFFDE2A000EDD2248C0D9FF49C0DAFF3E
:10130000DFCF4AF0020EDE26DFCF4BF0000EDD22EB
:101310004AC0D9FF4BC0DAFFDECFB6F0DDCFB7F061
:10132000000EB7BFFF0EB86FB96FBA6FBB6FBC6F5F
:10133000BD6F44C01DF045C01EF0B6C01FF0B7C061
:1013400020F0B8C021F0B9C022F0BAC023F0BBC071
:1013500024F0BCC025F0BDC026F050EC06F01DC046
:1013600044F01EC045F078EF0AF046C0D9FF47C0F0
:10137000DAFFDECFF6FFDDCFF7FF0800F550780A81
:10138000D8B4C5EF09F0C7EF09F0D9EF09F046C0AE
:10139000D9FF47C0DAFFDECFF6FFDDCFF7FF080049
:1013A000F550580AD8A4D7EF09F0D9EF09F027EF84
:1013B0000AF046C0D9FF47C0DAFFDECFF6FFDDCF27
:1013C000F7FF0800F5CFC6F046C0D9FF47C0DAFFE7
:1013D000DE2A000EDD2248C0D9FF49C0DAFFDFCF88
:1013E0004AF0020EDE26DFCF4BF0000EDD224AC0AF
:1013F000D9FF4BC0DAFFDECF4CF0DDCF4DF04CC053
:10140000BEF04DC0BFF0C06BC16BC26BC36BC46B91
:10141000C56B44C01DF045C01EF0BEC01FF0BFC06C
:1014200020F0C0C021F0C1C022F0C2C023F0C3C070
:1014300024F0C4C025F0C5C026F0C6C027F0C1EC1A
:1014400007F01DC044F01EC045F078EF0AF046C01A
:10145000D9FF47C0DAFFDECFF6FFDDCFF7FF080088
:10146000F550250AD8A437EF0AF039EF0AF050EF0B
:101470000AF046C0D9FF47C0DAFFDE2A000EDD229F
:10148000000E036E250E026E44C004F045C005F048
:10149000E4EC0CF0000E456E010E446E78EF0AF09D
:1014A00046C0D9FF47C0DAFFDE2A000EDD22000E5B
:1014B000456E000E446E78EF0AF046C0D9FF47C073
:1014C000DAFFDECFF6FFDDCFF7FF0800F550026E42
:1014D000036A44C004F045C005F0E4EC0CF046C0DB
:1014E000D9FF47C0DAFFDE2A000EDD224AEF0AF0FC
:1014F0001200000E136E11BE82EF0AF080EF0AF0A8
:1015000094EF0AF0111E101E0F1E0E1E0D1E0C1E53
:101510000B1E0A6C000E0B220C220D220E220F2233
:1015200010221122010E136E09BE9BEF0AF099EFF3
:101530000AF0ADEF0AF0091E081E071E061E051E62
:10154000041E031E026C000E032204220522062242
:10155000072208220922010E131A20EE14F0070EAA
:10156000DE6AE806FDE20A500B100C100D100E109A
:101570000F1010101110D8B4C0EF0AF0C2EF0AF02B
:1015800014EF0BF0010E126ED0EF0AF0D8900A366D
:101590000B360C360D360E360F3610361136122A33
:1015A00011AED5EF0AF0D7EF0AF0C6EF0AF0D890E7
:1015B0001436153616361736183619361A361B36BF
:1015C0000A50025C0B5003580C5004580D5005583B
:1015D0000E5006580F50075810500858115009580F
:1015E000D8A0F5EF0AF0F7EF0AF008EF0BF00A5079
:1015F000025E0B50035A0C50045A0D50055A0E50FF
:10160000065A0F50075A1050085A1150095A1480A0
:10161000D890113210320F320E320D320C320B32A2
:101620000A32122ED7EF0AF01350D8B41AEF0BF08B
:101630001CEF0BF02CEF0BF01B1E1A1E191E181EB0
:10164000171E161E151E146C000E152216221722C8
:10165000182219221A221B2214C002F015C003F00E
:1016600016C004F017C005F018C006F019C007F046
:101670001AC008F01BC009F01200000E136E09BE5C
:1016800046EF0BF044EF0BF058EF0BF0091E081E6D
:10169000071E061E051E041E031E026C000E0322FA
:1016A000042205220622072208220922010E136EB7
:1016B00011BE5FEF0BF05DEF0BF06FEF0BF0111E43
:1016C000101E0F1E0E1E0D1E0C1E0B1E0A6C000E91
:1016D0000B220C220D220E220F22102211220A5060
:1016E0000B100C100D100E100F1010101110D8B49C
:1016F0007CEF0BF07EEF0BF0C6EF0BF0010E126EDD
:101700008CEF0BF0D8900A360B360C360D360E36B1
:101710000F3610361136122A11AE91EF0BF093EFFF
:101720000BF082EF0BF00A50025C0B5003580C5088
:1017300004580D5005580E5006580F5007581050B9
:10174000085811500958D8A0A8EF0BF0AAEF0BF0D9
:10175000BAEF0BF00A50025E0B50035A0C50045AB9
:101760000D50055A0E50065A0F50075A1050085A7D
:101770001150095AD890113210320F320E320D32F8
:101780000C320B320A32122E93EF0BF01350D8B4F6
:10179000CCEF0BF0CEEF0BF0DEEF0BF0091E081EC6
:1017A000071E061E051E041E031E026C000E0322E9
:1017B00004220522062207220822092202C002F082
:1017C00003C003F004C004F005C005F006C006F035
:1017D00007C007F008C008F009C009F01200000EA9
:1017E0000B6E09BEF8EF0BF0F6EF0BF002EF0CF00A
:1017F000091E081E071E066C000E07220822092279
:10180000010E0B6E05BE09EF0CF007EF0CF013EFA5
:101810000CF0051E041E031E026C000E032204229F
:101820000522010E0B1A000E0C6E000E0D6E000E3E
:101830000E6E000E0F6E0650071008100910D8B477
:1018400024EF0CF026EF0CF05CEF0CF0010E0A6EAA
:1018500030EF0CF0D89006360736083609360A2ADB
:1018600009AE35EF0CF037EF0CF02AEF0CF0D89002
:101870000C360D360E360F360650025C07500358F4
:101880000850045809500558D8A049EF0CF04BEF08
:101890000CF054EF0CF00650025E0750035A08504B
:1018A000045A0950055A0C80D89009320832073280
:1018B00006320A2E37EF0CF00B50D8B462EF0CF062
:1018C00064EF0CF06CEF0CF00F1E0E1E0D1E0C6C76
:1018D000000E0D220E220F220CC002F00DC003F0EC
:1018E0000EC004F00FC005F01200959C959A9598D3
:1018F000F00E8316F00E95168C9C8C9A8C98EA0E3E
:10190000046EC30EE82EFED7042EFCD700F0300E76
:10191000B2EC0EF04E0E046EEB0EE82EFED7042E47
:10192000FCD700F0300EB2EC0EF0F00E00D0E82E36
:10193000FDD7320EB2EC0EF0030E046E550EE82EFB
:10194000FED7042EFCD700F0030E046E550EE82ED1
:10195000FED7042EFCD700F0280EB2EC0EF0030EDA
:10196000046E550EE82EFED7042EFCD700F0080EAC
:10197000B2EC0EF0030E046E550EE82EFED7042EC8
:10198000FCD700F0010EB2EC0EF04E0E046EEB0E22
:10199000E82EFED7042EFCD700F0060EB2EC0EF0B7
:1019A000030E046E550EE82EFED7042EFCD700F071
:1019B0000C0EB2EC0EF0030E046E550EE82EFED7A0
:1019C000042EFCD700F0120004500510D8B4EBEF41
:1019D0000CF0EDEF0CF0F6EF0CF004500510D8A46D
:1019E000F4EF0CF0F6EF0CF0FBEF0CF00250A9EC6A
:1019F00010F048EF0DF020EE04F00450D926055009
:101A0000DA22DE50DE10D8B408EF0DF00AEF0DF048
:101A100025EF0DF020EE04F00450D9260550DA220F
:101A200010EE02F00450E1260550E222DE50E65CA2
:101A3000E650800A0A6EDE50800A0A58D8B023EFBA
:101A40000DF025EF0DF048EF0DF020EE02F0045000
:101A5000D9260550DA22DECF06F0DDCF07F004C02C
:101A6000D9FF05C0DAFFDECF08F0DDCF09F0065060
:101A70000824D96E07500920DA6E02C0DFFF20EE7D
:101A800002F00450D9260550DA22DE2A000EDD22AB
:101A90001200000166A14FEF0DF051EF0DF05BEF6A
:101AA0000DF014C00BF015C00CF012C00DF013C0F7
:101AB0000EF034EC0FF017BE60EF0DF062EF0DF09A
:101AC00068EF0DF016C01BF017C01CF06CEF0DF0A6
:101AD000000E1C6E000E1B6E000E1A6E000E196EAC
:101AE0007EEF0DF0000E036E200E026E12C004F0A9
:101AF00013C005F0E4EC0CF0194A1A2A1B50195CCB
:101B00001A50800A186E1C50800A1858D8A08BEF03
:101B10000DF08DEF0DF072EF0DF0000166B193EF57
:101B20000DF095EF0DF09FEF0DF014C00BF015C008
:101B30000CF012C00DF013C00EF034EC0FF014C016
:101B400002F015C003F028EC10F01B500224126EB6
:101B50001C500320136E1200949C948E10C006F04B
:101B600011C007F012C008F013C009F0000E026E99
:101B70006C0E036EDC0E046E020E056EEFEC0BF0C5
:101B800002C014F003C015F004C016F005C017F031
:101B900014C002F015C003F016C004F017C005F021
:101BA000400E066E000E076E000E086E000E096EE7
:101BB000EFEC0BF00204AF6EAC94AC98AB8EAC9C27
:101BC000AC8AAB9CAB881200ABB2E9EF0DF0ECEF46
:101BD0000DF0010EEDEF0DF0000E026E036A021C17
:101BE000046E031C056EABB4F8EF0DF0FBEF0DF0C7
:101BF000010EFCEF0DF0000E066E076A061C086E63
:101C0000071C096E045008160550091608500910E3
:101C1000D8A40DEF0EF00FEF0EF019EF0EF0AB9E03
:101C2000100E026E940EE82EFED7022EFCD700D0C6
:101C3000AB8EAE50120039EF0EF0030E066E550E4D
:101C4000E82EFED7062EFCD700F004C0F6FF05C034
:101C5000F7FFF86A070EF76403D00800F55005D0C7
:101C6000F6CFE1FFF7CFE2FFE750DFEC0EF0044ADA
:101C7000052A04C0F6FF05C0F7FFF86A070EF764EF
:101C800003D00800F55005D0F6CFE1FFF7CFE2FF13
:101C9000E7500009D8A44FEF0EF051EF0EF01DEF02
:101CA0000EF0120050C054F051C055F0000E00016B
:101CB000616F000E606F70EF0EF04EC044F04FC0C9
:101CC00045F0540E466E000E476E52C048F053C0A9
:101CD00049F02DEC09F04450000160274550612384
:101CE00054C0F6FF55C0F7FF0800F5500009D8A40E
:101CF0007CEF0EF07EEF0EF05DEF0EF060C04EF068
:101D000061C04FF012009F0E0A6EFF0E0B6E08C0EE
:101D10000CF009C00DF00A500C260B500D220D508E
:101D20000AE11A0E0C5CD8A098EF0EF09BEF0EF0B3
:101D3000010E9CEF0EF0000E0E6E0F6A0E500F108B
:101D4000D8B4A5EF0EF0A7EF0EF0ADEF0EF05F0EDA
:101D50000814086E096AB1EF0EF008C008F009C057
:101D600009F01200036E030E026E550EE82EFED728
:101D7000022EFCD700F0F00E9516F00E83160338F5
:101D80000F0B0F0B8310836E8C9C8C9A3C0EE82EED
:101D9000FED78C883C0EE82EFED78C98F00E83166A
:101DA00003500F0B8310836E3C0EE82EFED78C88F9
:101DB0003C0EE82EFED78C980F0E95121200036E83
:101DC000030E026E550EE82EFED7022EFCD700F051
:101DD000F00E8316F00E951603380F0B0F0B8310C1
:101DE000836E8C8A8C9C3C0EE82EFED78C883C0E31
:101DF000E82EFED78C98F00E831603500F0B83123B
:101E00003C0EE82EFED78C883C0EE82EFED78C9830
:101E10000F0E95121200CB0E0001D16F000ED26F83
:101E2000C7C0D3F0C8C0D4F0000ED66F000ED56F77
:101E3000000ED86F000ED76FD30E4E6E000E4F6E91
:101E4000C9C050F0CAC051F0D10E526E000E536E90
:101E500052EC0EF00001D551C725D96ED651C821DC
:101E6000DA6E000EDF6E1200000E116E000E106EA4
:101E700045EF0FF00FC002F0036A0DC004F00EC072
:101E800005F0E4EC0CF0104A112A10500B24D96E26
:101E900011500C20DA6EDF500F6E0F50D8A453EFA4
:101EA0000FF055EF0FF03AEF0FF0120015BE63EF91
:101EB0000FF0155006E11404D8B061EF0FF063EF96
:101EC0000FF071EF0FF014C016F015C017F0161ECA
:101ED000171E164A172A16C014F017C015F075EF12
:101EE0000FF014C014F015C015F01200030E086EA8
:101EF000550EE82EFED7082EFCD700F005BE89EF60
:101F00000FF0055008E10404D8A089EF0FF08BEF23
:101F10000FF091EF0FF00650C00FB2EC0EF095EFFE
:101F20000FF00650800FB2EC0EF012004E0EF66E5F
:101F3000210EF76E000EF86E00EED9F010EE04F0F0
:101F40000900F5CFEEFFE550E150FAE100EE60F058
:101F5000560EEE6AE806FDE1586A59905992000E55
:101F6000F86E00013FEF04F09F0E046EFF0E056E49
:101F7000200E0210066E000E0310076E0450062697
:101F80000550072207500AE11A0E065CD8A0CBEFD5
:101F90000FF0CEEF0FF0010ECFEF0FF0000E026E3C
:101FA000036A1200650E00016B19D8A4DAEF0FF076
:101FB000DCEF0FF0EEEF0FF08B8458508EEC10F04A
:101FC0000A0E046E220E036EA10EE82EFED7032E1B
:101FD000FCD7042EFAD700F0EFEF0FF08B9412002D
:101FE0009F0E046EFF0E056E02C006F003C007F0E0
:101FF000045006260550072207500AE11A0E065C17
:10200000D8A005EF10F008EF10F0010E09EF10F066
:10201000000E026E036A1200BF0E046EFF0E056E04
:1020200002C006F003C007F0045006260550072240
:1020300007500AE11A0E065CD8A021EF10F024EF39
:1020400010F0010E25EF10F0000E026E036A120070
:1020500002C004F003C005F030EF10F0024A032A7A
:1020600002C0D9FF03C0DAFFDF50D8A43AEF10F066
:102070003CEF10F02EEF10F00450025C026E0550A1
:102080000358036E120000016951D8B44AEF10F0F2
:102090004CEF10F058EF10F06907010E6925F66E4D
:1020A000F76A080EF7220800F5CF8AFF5CEF10F000
:1020B000030E696F4DEF10F01200030E000169610D
:1020C00064EF10F066EF10F072EF10F0692B010E64
:1020D0006925F66EF76A080EF7220800F5CF8AFF29
:1020E00076EF10F0000E696F67EF10F01200060037
:1020F0000001681F6A1F8DB080EF10F083EF10F0B1
:10210000010E84EF10F0000EFF0A016E8D500118D1
:10211000FE0B01188D6EF09059921100026EACA268
:1021200094EF10F096EF10F08FEF10F002C0ADFFBB
:1021300012000F0EC1129480948294949690070E10
:10214000936E1200F086F090F198F28E1200BAB100
:042150000000120079
:020000040020DA
:08000000FFFFFFFFFFFFFFFF00
:020000040030CA
:0E000000040E181EFF0381FF0FC00FE00F401B
:00000001FF
